:100000006F00C01A1300000013000000130000006E
:100010001300000013000000130000001300000094
:100020001300000013000000130000001300000084
:08003000130000007300100032
:100038000000000000000000400100004201000034
:100048000000000044010000000000000000000063
:100058004601000048010000000000000000000008
:1000680084110000000000004C01000000000000A6
:100078004E01000050010000520100005401000030
:1000880056010000580100005A0100005C01000000
:100098005E010000600100006201000064010000D0
:1000A80066010000680100006A0100006C010000A0
:1000B8006E01000070010000720100007401000070
:1000C80076010000780100007A0100007C01000040
:1000D8007E0100002215000082010000840100005A
:1000E80086010000B01400008A0100008C010000A5
:1000F8008E010000900100009201000094010000B0
:1001080096010000301200003E130000F4130000B6
:100118009E010000A0010000A2010000A40100004F
:10012800A6010000A8010000AA01000000000000CC
:080138000000000000000000BF
:1001400001A001A001A001A001A001A001A001A0A7
:1001500001A001A001A001A001A001A001A001A097
:1001600001A001A001A001A001A001A001A001A087
:1001700001A001A001A001A001A001A001A001A077
:1001800001A001A001A001A001A001A001A001A067
:1001900001A001A001A001A001A001A001A001A057
:1001A00001A001A001A001A001A001A097010020D1
:1001B00093814165175100201301C1E417350000F8
:1001C00013054507970500209385C5E313868180B5
:1001D00063FAC5008322050023A05500110591058F
:1001E000E3EAC5FE13858180938541CE6377B50030
:1001F000232005001105E36DB5FEFD42739002BC9E
:100200008D42739042809302800873A0023097025F
:1002100000009382A2E293E2320073905230972260
:1002200000009382625C73901234730020300111DD
:1002300006CE22CC0010AA87A307F4FEB717014010
:10024000938707801307001098CB8347F4FE3E8501
:10025000EF10805DB71701409387078037070001D3
:1002600098CB8347F4FE3E85EF10005C0100F2401E
:10027000624405618280411106C622C4000883C71A
:10028000E18093C7170093F7F70FB5C783C7C18005
:1002900093C7170093F7F70FB9CF83C7D180B33750
:1002A000F00093F7F70F93C7170093F7F70F858BBD
:1002B00013F7F70FA386E18083C7D18081CBB717EF
:1002C0000140938707C0216798CB01A8B717014069
:1002D000938707C03707008098CBB707002083A714
:1002E0000700BE85B707002013858700EF009064E4
:1002F00005472386E1800100B2402244410182800B
:10030000411106C622C4000883C7E18093C71700C5
:1003100093F7F70F95C383C7C18099CFB707002024
:1003200013858700EF001063AA8793C7170093F720
:10033000F70F99C3238601800100B2402244410196
:100340008280411106C622C4000813858199CD2AF6
:10035000AA876382071E03C781999307F00F63176B
:10036000F7069387819998339307F00F6310F70688
:1003700093878199B8239307F00F6319F704938744
:100380008199B8339307B00B6312F704938781996F
:10039000D8239307B00B631BF70293878199D83357
:1003A0009307B00B6314F70293878199F82393079F
:1003B000B00B631DF700A3870180B7070020130768
:1003C000803E23A0E70023870180B5A203C781995F
:1003D0009307F00F6318F706938781999833930773
:1003E000F00F6311F70693878199B8239307F00FF5
:1003F000631AF70493878199B8339307A00A6313AC
:10040000F70493878199D8239307A00A631CF70206
:1004100093878199D8339307A00A6315F7029387CE
:100420008199F8239307A00A631EF7000547A38765
:10043000E180B70700201307401F23A0E7002387B0
:100440000180D5A803C781999307F00F6318F706B9
:100450009387819998339307F00F6311F706938779
:100460008199B8239307F00F631AF7049387819952
:10047000B8339307D00D6313F70493878199D8237A
:100480009307D00D631CF70293878199D8339307A4
:10049000D00D6315F70293878199F8239307D00D48
:1004A000631EF7000947A387E180B7070020130701
:1004B000400623A0E70023870180B5A803C78199E0
:1004C0009307F00F6319F706938781999833930781
:1004D000F00F6312F70693878199B8239307F00F03
:1004E000631BF70493878199B8339307C00C631497
:1004F000F70493878199D8239307C00C631DF702F3
:1005000093878199D8339307C00C6316F7029387BA
:100510008199F8239307C00C631FF7000D47A38749
:10052000E18005472387E180B7170140938707C023
:10053000216798CB09A00100B2402244410182808A
:10054000797122D60018232EA4FC231604FE23154D
:1005500004FE8327C4FD85079C231397070141836D
:100560008327C4FD89079C23C207C183BA971397C9
:10057000070141838327C4FD8D079C23C207C183E4
:10058000BA971397070141838327C4FD91079C23E2
:10059000C207C183BA971397070141838327C4FD1C
:1005A00095079C23C207C183BA971397070141831C
:1005B0008327C4FD99079C23C207C183BA97C2074A
:1005C000C183B307F0402316F4FE8327C4FD9D07C3
:1005D0009C23A2071397070141878317A4FED98F95
:1005E0001397070141878327C4FDA1079C23C207F6
:1005F000C187D98FC207C1872315F4FE0357C4FEF4
:100600008357A4FE6316F7008547A307F4FE19A0DD
:10061000A30704FE8347F4FE3E8532544561828081
:10062000797106D622D40018AA872E87232CC4FC01
:10063000A30FF4FCBA87231EF4FC832784FD7D57A7
:1006400098A3832784FD85070347F4FD98A3832798
:1006500084FD8907114798A38317C4FD13D7074169
:10066000832784FD8D071377F70F98A38317C4FDA5
:1006700013D70741832784FD91071377F70F98A3BA
:100680008317C4FDA187139707014187832784FD42
:1006900095071377F70F98A3832784FD99070357CE
:1006A000C4FD1377F70F98A3832784FD85079C2348
:1006B000139707014183832784FD89079C23C20781
:1006C000C183BA97139707014183832784FD8D0760
:1006D0009C23C207C183BA971397070141838327DD
:1006E00084FD91079C23C207C183BA971397070122
:1006F0004183832784FD95079C23C207C183BA9752
:10070000139707014183832784FD99079C23C20720
:10071000C183BA97C207C183B307F0402317F4FE21
:100720008357E4FEA183139707014183832784FD48
:100730009D071377F70F98A3832784FDA10703571D
:10074000E4FE1377F70F98A393064006254683250A
:1007500084FDB747014013850780EF10F061010069
:10076000B250225445618280797106D622D4001895
:10077000AA87232CB4FC232AC4FCA30FF4FC8327F0
:1007800044FD7D5798A3832744FD85070347F4FD67
:1007900098A3832744FD8907214798A3930784FDE5
:1007A0009C4313D78701832744FD8D071377F70FE9
:1007B00098A3930784FD9C4313D70701832744FD27
:1007C00091071377F70F98A3930784FD9C4313D7E2
:1007D0008700832744FD95071377F70F98A39307A6
:1007E00084FD9843832744FD99071377F70F98A357
:1007F000832744FD85079C231397070141838327A3
:1008000044FD89079C23C207C183BA971397070148
:100810004183832744FD8D079C23C207C183BA9778
:10082000139707014183832744FD91079C23C20747
:10083000C183BA97139707014183832744FD950726
:100840009C23C207C183BA9713970701418383276B
:1008500044FD99079C23C207C183BA97C207C1838D
:10086000B307F0402317F4FE8357E4FEA1831397E8
:1008700007014183832744FD9D071377F70F98A352
:10088000832744FDA1070357E4FE1377F70F98A3CE
:10089000930640062546832544FDB747014013854E
:1008A0000780EF10704D0100B250225445618280E4
:1008B000797122D60018232EA4FCAE873287A30DAF
:1008C000F4FCBA87230DF4FCFD572317F4FE95A022
:1008D0008327C4FD13871700232EE4FC9C23139762
:1008E000070141838357E4FEB98F2317F4FE2324C5
:1008F00004FE1DA88357E4FE858B89CF8357E4FE51
:100900008583139707014183E9778507B98F2317FB
:10091000F4FE31A08357E4FE85832317F4FE83277A
:1009200084FE85072324F4FE032784FE9D47E3D33A
:10093000E7FC8347B4FD1387F7FFA30DE4FCC9FB75
:100940008347A4FD0D47638CE7000D476350F71004
:1009500011476389E70215476384E708CDA88357E9
:10096000E4FEA2071397070141878357E4FEA183A2
:10097000C207C183C207C187D98FC207C1872317A6
:10098000F4FEF1A08357E4FEA183C207C183B2073E
:100990001397070141878357E4FEB183C207C183E0
:1009A000A207C207C187D98F1397070141878357D1
:1009B000E4FEC207C207C187D98F13970701418799
:1009C0008357E4FE9183C207C183C207C187BD8BF1
:1009D000C207C187D98FC207C1872317F4FE85A834
:1009E0008357E4FEA183C207C1839207C207C18770
:1009F00093F7F70F1397070141878357E4FEB183FD
:100A0000C207C183C207C187D98F139707014187E6
:100A10008357E4FEE207C207C187D98F1397070106
:100A200041878357E4FE9183C207C183A20793964F
:100A30000701C1868567938707F0F58FC207C187D5
:100A4000D98FC207C1872317F4FE11A00100835775
:100A5000E4FE3E85325445618280797106D622D407
:100A60000018AA873687A30FF4FCAE87231EF4FC78
:100A7000B287230FF4FCBA87A30DF4FCB70700205C
:100A80000347F4FD238CE704B7070020938787050D
:100A90000D4798B38357C4FDA183C207C18313F7E1
:100AA000F70FB707002093878705B8A38357C4FDC6
:100AB00013F7F70FB707002093878705B8B3B70779
:100AC00000209387870523820700B70700209387BC
:100AD00087050347E4FDD8B38347B4FD3E869945B7
:100AE000B707002013858705E133AA872317F4FE93
:100AF0008357E4FEA183C207C18313F7F70FB7073B
:100B0000002093878705F8A38357E4FE13F7F70FB8
:100B1000B707002093878705F8B393064006214660
:100B2000B707002093858705B74700401385074026
:100B3000EF10902E0100B2502254456182807971ED
:100B400022D60018232EA4FCAE873287A30DF4FC16
:100B5000BA87230DF4FC232604FE8347A4FD0D472A
:100B60006385E7060D476346F7000947638AE70098
:100B700025AA11476380E70A15476382E70E2DA275
:100B80008347B4FD0327C4FDBA979C2313978701BD
:100B90008347B4FD85078326C4FDB6979C23C2070F
:100BA0005D8F8347B4FD89078326C4FDB6979C23D8
:100BB000A207D98F0347B4FD0D078326C4FD3697DE
:100BC0001823D98F2326F4FEC5A08347B4FD8907D7
:100BD0000327C4FDBA979C23139787018347B4FD6D
:100BE0008D078326C4FDB6979C23C2075D8F83477C
:100BF000B4FD8326C4FDB6979C23A207D98F034773
:100C0000B4FD05078326C4FD36971823D98F232604
:100C1000F4FE59A88347B4FD85070327C4FDBA979E
:100C20009C23139787018347B4FD8326C4FDB697A1
:100C30009C23C2075D8F8347B4FD8D078326C4FDC7
:100C4000B6979C23A207D98F0347B4FD09078326D3
:100C5000C4FD36971823D98F2326F4FEB1A083470D
:100C6000B4FD8D070327C4FDBA979C231397870112
:100C70008347B4FD89078326C4FDB6979C23C2072A
:100C80005D8F8347B4FD85078326C4FDB6979C23FB
:100C9000A207D98F0347B4FD8326C4FD36971823D6
:100CA000D98F2326F4FE01008327C4FE3E853254EB
:100CB00045618280797122D60018232EA4FCAE876C
:100CC0003287A30DF4FCBA87230DF4FC231704FE2E
:100CD0008347A4FD89C70547638CE7029DA083472E
:100CE000B4FD0327C4FDBA979C23A20713970701FD
:100CF00041878347B4FD85078326C4FDB6979C23AF
:100D0000C207C187D98FC207C1872317F4FE15A870
:100D10008347B4FD85070327C4FDBA979C23A20728
:100D20001397070141878347B4FD8326C4FDB69717
:100D30009C23C207C187D98FC207C1872317F4FE3E
:100D400001008357E4FE3E853254456182800111E3
:100D500006CE22CC0010AA87A307F4FE8347F4FE38
:100D60001947636BF702139727008D679387870BEB
:100D7000BA979C4382878D463D4695651305700F53
:100D8000E93919A88D46054695679385D70213055D
:100D9000700FE13111A001000100F24062440561D1
:100DA0008280011106CE22CC0010AA87A307F4FE90
:100DB0008347F4FE1947636CF720139727008D676C
:100DC0009387470DBA979C43828709468D451385C3
:100DD000C1A9B533AA873E85EF10707C8D6703A645
:100DE000070B83A6470BEF109029AA872E883E8514
:100DF000C285EF20000E2A8723A8E18009469D4581
:100E00001385C1A92D3BAA873E85EF1050798D67C8
:100E100003A6070B83A6470BEF107026AA872E8820
:100E20003E85C285EF20E00A2A8723AAE180094691
:100E3000AD451385C1A92133AA873E85EF103076D1
:100E40008D6703A6070B83A6470BEF105023AA87D5
:100E50002E883E85C285EF20C0072A8723ACE1801B
:100E60000946BD451385C1A9D939AA873E85EF102A
:100E700010738D6703A6070B83A6470BEF10302076
:100E8000AA872E883E85C285EF20A0042A8723AE3C
:100E9000E1800946CD451385C1A95531AA873E8514
:100EA000EF10F06F8D6703A6070B83A6470BEF10BB
:100EB000101DAA872E883E85C285EF2080012A87D3
:100EC00023A0E1820146DD451385C1A9E533AA8748
:100ED0003E85EF10D0658D6703A6070B83A6470BF1
:100EE000EF10F019AA872E883E85C285EF10707E1C
:100EF0002A8723A2E1820146E5451385C1A95D3B0E
:100F0000AA873E85EF10B0628D6703A6070B83A604
:100F1000470BEF10D016AA872E883E85C285EF10AA
:100F2000507B2A8723A4E1820146ED451385C1A9A0
:100F30005133AA873E85EF10F06C2A8723A6E18201
:100F40000146F5451385C1A9B533AA873E85EF1043
:100F5000105E8D6703A6070B83A6470BEF103012B8
:100F6000AA872E883E85C285EF10B0762A8723A8EF
:100F7000E1820146FD451385C1A92D3BAA873E8527
:100F8000EF10F05A8D6703A6070B83A6470BEF10EF
:100F9000100FAA872E883E85C285EF1090732A878E
:100FA00023AAE1820547238CE19415A001468D45D3
:100FB0001385C1A90133AA87139707014187239C91
:100FC000E18293878195054798B311A00100010044
:100FD000F240624405618280411122C6000883C745
:100FE000118593C7170093F7F70FADCB83A78184C3
:100FF00099C783A781841387F7FF23A4E18483A77C
:101000008184A9EF83A7C18499C783A7C18413876B
:10101000F7FF23A6E18483A7C184A9E3B7070020D3
:1010200083C7470093C7170093F7F70F85CB83C794
:10103000018593F7F70F850713F7F70F2388E184EE
:1010400083C7018513F7F70F854763F4E70023880B
:101050000184B707002005472382E70001003244DE
:1010600041018280011106CE22CC0010B70700207A
:1010700083C7470099CF83C7018593F7F70F3E8554
:10108000F931B7070020238207001307803E23A40D
:10109000E18483C71185D1CB9387C1A983D727105A
:1010A000D9C39387C1A983D7271093F7F70FF917EF
:1010B00093F7F70F0D46BE851385C1A9EFF04FFFDB
:1010C000AA872317F4FE9387C1A983D72710138714
:1010D000E7FF9387C1A9BA979C23A207139707013B
:1010E00041879387C1A983D727109386F7FF9387FA
:1010F000C1A9B6979C23C207C187D98FC207C187F0
:101100002316F4FE0357E4FE8357C4FE6318F7006A
:1011100083C7018593F7F70F3E85613123A40184CE
:10112000294723A6E184A38801840100F240624498
:1011300005618280011122CE00102326A4FE232403
:10114000B4FE8327C4FE032784FE98C301007244C3
:1011500005618280011122CE00102326A4FE832780
:10116000C4FE9C4399CB8327C4FE9C431387F7FF9F
:101170008327C4FE98C3854711A081473E857244EA
:10118000056182805D7186C696C49AC29EC022DEC9
:101190002ADC2EDA32D836D63AD43ED242D046CEE7
:1011A00072CC76CA7AC87EC68008B7F700E0D8430A
:1011B000B7F700E0799BD8C383A7C18313871700D3
:1011C00023AEE18283A7018499C783A70184138793
:1011D000F7FF23A0E18483A7418499C783A74184B3
:1011E0001387F7FF23A2E184C53BEFF06F911385CE
:1011F00041858D37AA8793C7170093F7F70F81C7EB
:1012000005472389E1840100B640A6421643864380
:1012100072546255D2554256B256225792570258CE
:10122000F248624ED24E424FB24F6161730020309D
:101230005D7186C696C49AC29EC022DE2ADC2EDA72
:1012400032D836D63AD43ED242D046CE72CC76CAC6
:101250007AC87EC68008B7470140938707809E23DF
:10126000C207C18393F70702A9CF9387819903D758
:1012700007109307F00F63E2E704B7470140938735
:101280000780DE231397070141839387819983D7D2
:101290000710BE861377F70F93878199B69798A3A7
:1012A0009387819983D70710850713970701418397
:1012B000938781992390E71029A0938781992390A0
:1012C0000710B7470140938707809E23C207C18359
:1012D000C18BA9C3B747014093870780DE2393875B
:1012E000819903D70710938781992391E7109387FA
:1012F000819923900710EFF0CF8413858199EFF047
:101300002FA4AA8781CB03C7F1808D476314F70010
:10131000EF10604C0100B640A6421643864372545B
:101320006255D2554256B256225792570258F24849
:10133000624ED24E424FB24F616173002030411174
:1013400022C636C43AC23EC00008B7470040938761
:1013500007409E23C207C18393F70702A9CF938753
:10136000C1A903D707109307F00F63E2E704B7475B
:10137000004093870740DE2313970701418393873B
:10138000C1A983D70710BE861377F70F9387C1A92A
:10139000B69798A39387C1A983D70710850713979A
:1013A000070141839387C1A92390E71029A0938760
:1013B000C1A923900710B7070040938707402392E5
:1013C0000702B7070040938707409E231397070142
:1013D0004183B70700409387074013671700420710
:1013E00041839AA301003244A24612478247410139
:1013F00073002030411122C636C43AC23EC00008F4
:10140000B7570040938707809E23C207C18393F795
:101410000702A9CF938701BA03D707109307F00FEC
:1014200063E2E704B757004093870780DE231397F2
:1014300007014183938701BA83D70710BE861377CC
:10144000F70F938701BAB69798A3938701BA83D70A
:1014500007108507139707014183938701BA2390EB
:10146000E71029A0938701BA23900710B7570040CF
:10147000938707809E23C207C183C18B95C3B7574B
:10148000004093870780DE23938701BA03D70710B4
:10149000938701BA2391E710938701BA239007102D
:1014A00001003244A24612478247410173002030B6
:1014B000411122C63AC43EC20008B70700409387D4
:1014C00007409E2BC207C183858BA9C7B707004081
:1014D000938707409E2B139707014183B70700406E
:1014E00093870740799B420741839AABB7470040F7
:1014F00093870740DE239387C1A903D707109387FB
:10150000C1A92391E7109387C1A92390071005472C
:10151000A388E184010032442247924741017300CD
:101520002030411122C63AC43EC20008B7370140FC
:10153000938707C09E2BC207C183858B8DC3B737A6
:101540000140938707C09E2B139707014183B7374C
:101550000140938707C0799B420741839AAB010002
:10156000324422479247410173002030411122C684
:101570000008B7170240984FB7170240136747009B
:1015800098CFB7170240984FB7170240136717005C
:1015900098CFB7070140D443B7070140370700F998
:1015A0007D17758FD8C3B717014093870780596798
:1015B00098CFB717014093870780196798CFB7175F
:1015C000014093870780596798CFB71701409387E9
:1015D00007809C4F0100324441018280411122C6A4
:1015E0000008B71702409843B71702401367170067
:1015F00098C30100B71702409C43898BE5DFB717FA
:1016000002409443B71702403707FCFF7D17758FE0
:1016100098C3B71702409443B717024041777D172C
:10162000758F98C3B71702409443B7170240370726
:10163000F8FF7D17758F98C3B7170240D843B717C7
:101640000240719BD8C3B71702409443B7170240BA
:10165000370700FF7D17758F98C3B7170240DC432B
:1016600013F7F7F0B717024013670708D8C3B72777
:101670000240944BB7270240370700FE7D17758F55
:1016800098CBB7170240DC4313F7F78FB717024028
:1016900013670740D8C3B7170240D443B7170240B7
:1016A00071771307F77F758FD8C3B7170240D843F8
:1016B000D177FD17B376F700B71702402167558F32
:1016C000D8C3B7470240938707809843B747024083
:1016D000938707801367070198C3B7170240D44365
:1016E000B717024041777D17758FD8C3B7170240EF
:1016F000D443B717024037073C00558FD8C3B717FC
:101700000240D843B70740FFFD17B376F700B7177D
:10171000024037078000558FD8C3B7170240944363
:10172000B717024037070001558F98C3B71702401B
:10173000DC4313F7C7FFB717024013672700D8C36E
:101740000100B71702409843B7070002F98FF5DB95
:101750000100324441018280011122CE0010B7F70E
:1017600000E09843B7F700E0799B98C3B7F700E033
:101770009843B7F700E01367270098C3B7F700E076
:101780009843B7F700E06D9B98C3B7F700E0984324
:10179000B7F700E01367870098C3B7F700E09843F6
:1017A000B7F700E01367070198C3B7F700E0984365
:1017B000B7F700E01367070298C337F700E08967BF
:1017C0009387773201481CCB232A0701B147232294
:1017D000F4FE832744FEFD8B0547B316F70037E779
:1017E00000E0832744FE9583938707048A07BA970E
:1017F00094C3B1472326F4FE9D47A305F4FE37E7C3
:1018000000E08327C4FEBA970347B4FE2380E74075
:10181000B7F700E09843B7F700E01367170098C3E5
:101820000100724405618280011122CE001023263E
:10183000A4FE0327C4FE23A0E184010083A7018442
:10184000F5FF0100724405618280797122D600188B
:10185000232EA4FCAE873687A30DF4FCB287230D9C
:10186000F4FCBA87A30CF4FCA30704FE8347A4FD91
:1018700089C70547638EE702A5A88347B4FD8A0799
:10188000A307F4FE8327C4FD98438347F4FE8D46E7
:10189000B397F60093C7F7FFF98F834694FD03478C
:1018A000F4FE3397E6005D8F8327C4FD98C389A0BB
:1018B0008347B4FDE117A30DF4FC8347B4FD8A0709
:1018C000A307F4FE8327C4FDD8438347F4FE8D4667
:1018D000B397F60093C7F7FFF98F834694FD03474C
:1018E000F4FE3397E6005D8F8327C4FDD8C3010063
:1018F0000100325445618280797106D622D40018E5
:10190000232EA4FCAE873287A30DF4FCBA87230DE7
:10191000F4FCA30704FE0347B4FD9D4763E5E7001D
:10192000A30704FE21A08547A307F4FE8347A4FD77
:1019300081EF0347F4FE8347B4FD81463A86BE85B6
:101940000325C4FD193785A00347A4FD8547631D02
:10195000F7000347F4FE8347B4FD85463A86BE850B
:101960000325C4FDDD3581A00347A4FD8947631D20
:10197000F7000347F4FE8347B4FD89463A86BE85E7
:101980000325C4FDD93505A00347A4FD8D47631C7D
:10199000F7000347F4FE8347B4FD8D463A86BE85C3
:1019A0000325C4FD5D350100B2502254456182809B
:1019B000011122CE00102326A4FEAE8732872322F7
:1019C000D4FEA305F4FEBA872305F4FE8347B4FED4
:1019D00089C70547638DE7029DA08327C4FE98430E
:1019E000832744FE9C23BE868D47B397D70093C7B9
:1019F000F7FFF98F0347A4FE832644FE9422331792
:101A0000D7005D8F8327C4FE98C301000DA88327EC
:101A1000C4FED843832744FE9C23BE868D47B397DC
:101A2000D70093C7F7FFF98F0347A4FE832644FE30
:101A300094223317D7005D8F8327C4FED8C30100DB
:101A4000724405618280011106CE22CC001023264B
:101A5000A4FE2324B4FE2320F4FEB287A303F4FEE5
:101A6000B6872303F4FEBA87A302F4FE834774FE0D
:101A700005476385E70409476380E708639C07120D
:101A8000834764FE89C70547638EE70025A20327C5
:101A900004FE834754FEBA860146BE850325C4FE74
:101AA000013F21A8032704FE834754FEBA8605465A
:101AB000BE850325C4FEED3D0100EDA8834764FE0D
:101AC00089C70547638EE700F5A0032704FE834717
:101AD00054FEBA860946BE850325C4FED13D21A821
:101AE000032704FE834754FEBA860D46BE850325B0
:101AF000C4FE7D3D01007DA8834764FE0D47638BD6
:101B0000E7020D476346F7000947638AE70055A0DF
:101B10001147638CE70215476384E70659A803273A
:101B200004FE834754FEBA860146BE850325C4FEE3
:101B3000413541A0032704FE834754FEBA8605467B
:101B4000BE850325C4FEAD35ADA0032704FE834743
:101B500054FEBA860946BE850325C4FE913D8327FF
:101B6000C4FED847832784FE9C23BE868547B3974F
:101B7000D70093C7F7FF7D8F8327C4FED8C715A86A
:101B8000032704FE834754FEBA860946BE85032513
:101B9000C4FE393D8327C4FED847832784FE9C2397
:101BA000BE868547B397D7005D8F8327C4FED8C70D
:101BB000010001000100F2406244056182807971F8
:101BC00006D622D40018232EA4FCAE87A30DF4FC65
:101BD000B287230DF4FCB687A30CF4FCBA87230C60
:101BE000F4FCA30704FE0327C4FDB7170140938745
:101BF0000780631BF700B7170240984FB7170240E2
:101C00001367470098CF51A00327C4FDB7170140C1
:101C1000938707C0631BF700B7170240984FB717A9
:101C200002401367870098CF8DA00327C4FDB71724
:101C30000140631BF700B7170240984FB7170240E7
:101C40001367070198CF91A00327C4FDB717014080
:101C500093870740631BF700B7170240984FB717E9
:101C600002401367070298CF0DA00327C4FDB727D2
:101C7000014093870780631AF700B7170240984F17
:101C8000B71702401367070498CF8347B4FD034793
:101C900084FD3A86BE850325C4FDB9390347B4FDEA
:101CA0009D4763E9E7028347B4FD8A0793F7F70F7F
:101CB000890793F7F70FA307F4FE9307F4FE834613
:101CC00094FD0346A4FD9305B4FD01470325C4FD1F
:101CD0009D3B35A88347B4FDE11793F7F70FA30D9C
:101CE000F4FC8347B4FD8A0793F7F70F890793F74E
:101CF000F70FA307F4FE9307F4FE834694FD034613
:101D0000A4FD9305B4FD05470325C4FD2D3B01004B
:101D1000B250225445618280011122CE0010B717C3
:101D20000240D84FB717024013672700D8CFB71724
:101D30000240984FB71702401367170098CFB707B4
:101D40000040938707409E23139707014183B707FD
:101D5000004093870740759B420741839AA3B707CA
:101D60000040938707409E23139707014183B707DD
:101D70000040938707406D9B420741839AA3B707B2
:101D80000040938707409E23139707014183B707BD
:101D900000409387074013678700420741839AA357
:101DA000B7070040938707409E231397070141839D
:101DB000B7070040938707403D9B420741839AA3A2
:101DC000B7070040938707409E231397070141837D
:101DD000B7070040938707401377F7F9420741831D
:101DE0009AA3B7070040938707409E2313970701E4
:101DF0004183B707004093870740136707084207EE
:101E000041839AA3B7070040938707409E23139707
:101E100007014183B7070040938707401377F7CF47
:101E2000420741839AA3B707004093870740DE2704
:101E3000139707014183B707004093870740136753
:101E4000170042074183DAA7B7070040938707408E
:101E50001307A0049AB7B7070040938707401307FA
:101E6000B05DDAB79307D0022326F4FE8327C4FEC1
:101E7000FD8B0547B316F70037E700E08327C4FE64
:101E80009583938707048A07BA9794C3B7070040DE
:101E9000938707409E23139707014183B7070040AC
:101EA0009387074013671700420741839AA30100F5
:101EB000724405618280011122CE0010B7170240E2
:101EC000984FB71702401367470098CFB7170240E3
:101ED000984FB71702401367170098CFB717014004
:101EE00093870780DC4313F7F7F3B7170140938715
:101EF000078013670708D8C3B71701409387078087
:101F0000D843B71701409387078013670703D8C3E7
:101F1000B717014093870780D843FD779387F73F32
:101F20007D8FB71701409387078013670740D8C399
:101F3000B717014093870780D843B71701409387AD
:101F400007801377F7CFD8C3B7170240944FB7175E
:101F500002401167558F98CFB7470140938707809C
:101F60009E27C207C183C207C187BD8B1397070194
:101F700041878967938707D4D98F139707014187D2
:101F8000B747014093870780420741839AA7B74725
:101F90000140938707809E27C207C183C207C1877C
:101FA00093F707F3C207C18793E7070C139707015D
:101FB0004187B747014093870780420741839AA72B
:101FC000B747014093870780DE2793960701C182B8
:101FD000B7470140938707800967558F42074183C0
:101FE000DAA7B747014093870780DE27939607015A
:101FF000C182B7470140938707807D777D17758F32
:1020000042074183DAA7B747014093870780DE275D
:1020100093960701C182B7470140938707807D7778
:102020001307F77F758F42074183DAA7B74701404F
:1020300093870780DE27139707014183B747014045
:10204000938707801377F7BF42074183DAA7B74723
:10205000014093870780DE27139707014183B74725
:102060000140938707801377F7EF42074183DAA790
:10207000B747014093870780DE2713970701418305
:10208000B7470140938707801377F7F742074183EB
:10209000DAA7B747014093870780DE271397070128
:1020A0004183B7470140938707801377F7FB4207C7
:1020B0004183DAA7B747014093870780DE2713974C
:1020C00007014183B74701409387078013670702E1
:1020D00042074183DAA7B747014093870780DE278D
:1020E000139707014183B747014093870780136720
:1020F000070142074183DAA7B7470140938707806A
:10210000DE27139707014183B74701409387078074
:102110001367870042074183DAA7B74701409387D7
:102120000780DE27139707014183B7470140938754
:1021300007801367470042074183DAA7B74701408A
:1021400093870780DE27139707014183B747014034
:1021500093870780759B42074183DAA7B747014001
:1021600093870780DE27139707014183B747014014
:1021700093870780799B42074183DAA7B7470140DD
:102180009387078023980700B7470140938707800C
:102190009E2B93960701C182B74701409387078022
:1021A00075777D17758F420741839AABB74701401A
:1021B00093870780239A0700B747014093870780DA
:1021C000239C0700930750032322F4FE832744FE39
:1021D000FD8B0547B316F70037E700E0832744FE81
:1021E0009583938707048A07BA9794C3930750038C
:1021F0002326F4FEA30504FE37E700E08327C4FE90
:10220000BA970347B4FE2380E7400100724405619A
:102210008280011122CE0010B7170240984FB717E5
:1022200002401367470098CFB7170240984FB7177F
:1022300002401367170098CFB717014093870780B4
:102240009843FD779387F73FB376F700B7170140C0
:1022500093870780056713070780558F98C3B717C3
:102260000140938707809843B71701409387078001
:102270001367073098C3B7170140938707809843C7
:10228000D177FD17B376F700B71701409387078022
:102290001167558F98C3B717014093870780944300
:1022A000B71701409387078075777D17758F98C39F
:1022B000B7170240D44FB717024037070200558FB7
:1022C000D8CFB7470040938707409E27C207C183F6
:1022D000C207C187BD8B1397070141878567938725
:1022E00007EAD98F139707014187B74700409387C3
:1022F0000740420741839AA7B747004093870740AA
:102300009E27C207C183C207C187C19BC207C1877D
:1023100093E76700139707014187B747004093870A
:102320000740420741839AA7B74700409387074079
:10233000DE2793960701C182B74700409387074085
:102340000967558F42074183DAA7B7470040938753
:102350000740DE2793960701C182B7470040938765
:1023600007407D777D17758F42074183DAA7B7470E
:10237000004093870740DE2793960701C182B74745
:102380000040938707407D771307F77F758F4207DB
:102390004183DAA7B747004093870740DE271397AA
:1023A00007014183B7470040938707401377F7BF82
:1023B00042074183DAA7B747004093870740DE27EB
:1023C000139707014183B74700409387074013776E
:1023D000F7EF42074183DAA7B747004093870740EA
:1023E000DE27139707014183B747004093870740D3
:1023F0001377F7F742074183DAA7B747004093877F
:102400000740DE27139707014183B74700409387B2
:1024100007401377F7FB42074183DAA7B74700402D
:1024200093870740DE27139707014183B747004092
:10243000938707401367070242074183DAA7B7472C
:10244000004093870740DE27139707014183B74772
:102450000040938707403D9B42074183DAA7B74777
:10246000004093870740DE27139707014183B74752
:102470000040938707401367870042074183DAA72C
:10248000B747004093870740DE2713970701418332
:10249000B7470040938707401367470042074183CF
:1024A000DAA7B747004093870740DE271397070155
:1024B0004183B747004093870740759B420741839C
:1024C000DAA7B747004093870740DE271397070135
:1024D0004183B747004093870740799B4207418378
:1024E000DAA7B74700409387074023980700B7470C
:1024F0000040938707409E2B93960701C182B74700
:1025000000409387074075777D17758F4207418399
:102510009AABB747004093870740239A0700B74715
:10252000004093870740239C070093076003232202
:10253000F4FE832744FEFD8B0547B316F70037E70B
:1025400000E0832744FE9583938707048A07BA97A0
:1025500094C3930760032326F4FEA30504FE37E724
:1025600000E08327C4FEBA970347B4FE2380E74008
:102570000100724405618280797122D60018232EF1
:10258000A4FC232CB4FCB2872328D4FC231BF4FC2A
:10259000231704FEA9A0032704FD23A2E18431A090
:1025A00083A7418499E38147A5A08327C4FD9E2387
:1025B000C207C18393F70708E5D7832784FD1387F4
:1025C0001700232CE4FC9C231397070141838327E6
:1025D000C4FDDAA38357E4FE85072317F4FE0357EF
:1025E000E4FE835764FDE368F7FA032704FD23A2A2
:1025F000E18431A083A7418499E3814711A883270F
:10260000C4FD9E23C207C18393F70704E5D785471E
:102610003E85325445618280797122D60018232E7E
:10262000A4FC232CB4FCB2872328D4FC231BF4FC89
:10263000B717014093870780094798CB231704FEFB
:10264000A1A8032704FD23A2E18429A883A741842C
:1026500091EBB7170140938707803707020098CBAB
:10266000814751A08327C4FD9E23C207C18393F7EE
:102670000708E9DF832784FD13871700232CE4FC78
:102680009C231397070141838327C4FDDAA3835753
:10269000E4FE85072317F4FE0357E4FE835764FD29
:1026A000E361F7FA032704FD23A2E18429A883A7A5
:1026B000418491EBB71701409387078037070200E9
:1026C00098CB81470DA08327C4FD9E23C207C183F9
:1026D00093F70704E9DFB7170140938707803707AF
:1026E000020098CB85473E85325445618280411176
:1026F00006C622C4000803C7F1808D476318F70C93
:1027000083C781956384070A03A70181138641CAA1
:10271000BA850545EFE04F8503A74181138641CA7D
:10272000BA850945EFE04F8403A78181138641CA2A
:10273000BA850D45EFE04F8303A7C181138641CAD7
:10274000BA851145EFE04F8203A70182138641CA83
:10275000BA851545EFE04F8103A74182138641CA30
:10276000BA851945EFE04F8003A78182138641CADD
:10277000BA851D45EFD05FFF03A7C182138641CA0A
:10278000BA852145EFD05FFE03A70183138641CAB6
:10279000BA852545EFD05FFD03A74183138641CA63
:1027A000BA852945EFD05FFC238C019493878195EE
:1027B0009C3389CF03978183138641CABA852D45FF
:1027C000EFD01FE693878195A38007000100B240F8
:1027D000224441018280411122C600080100324496
:1027E00041018280411106C622C40008EFE01FD8D3
:1027F000EFE0DFDEEFE05FF6EFF0BFA1EFF0AFEB71
:102800000D47814601468545B7170140138507806E
:10281000EFF0EFBAB7170140938707803707020040
:1028200098CB0D4781460146A145B7170140138556
:102830000780EFF0CFB80D4781460146BD45B71779
:102840000140138507C0EFF08FB7EFF0EFCC130511
:10285000800CEFD0DF9D1545EFE01FFDEFE09F807E
:10286000EFD07FA183C72185F5DB51352389018412
:102870009305007D13854185EFE0DF8BC5B7397186
:102880004AD813D945014ED652D456D29399C50091
:1028900006DE22DC26DA5AD05ECE1379F97F2A8A48
:1028A00093D9C90093DAF501630D090E9307F07F00
:1028B0006304F9181354D5018E09B3693401370440
:1028C000800033E4890093143500130919C081494D
:1028D000814B13D74601139AC6001377F77FB28551
:1028E000135ACA0013DBF601630A07109307F07F3F
:1028F0006303F7049357D6010E0A33EA470113071F
:1029000017C0B7078000B367FA00931536003A99ED
:10291000814833C76A01BD463A851308190063E64A
:102920003617170600001306E67C8A09B29983A6BB
:102930000900B2968286B367CA001309F97F6397CC
:10294000071293E9290081458948E1B701479307B8
:10295000F07F3704080081443204D20731807E07BB
:102960005D8C598CA285F250625426854259D2540E
:10297000B259225A925A025BF24B216182805A85E7
:102980003E84AE84C68B8947638BFB0E8D47E38FF5
:10299000FBFA85472A87639AFB38814701448144C3
:1029A00065BF33E4A90055CC36C632C46389092A11
:1029B0004E8569252246B246AA87130755FF7544FE
:1029C000938487FF198CB399990033548A00336438
:1029D0003401B3149A0013D746011309D0C0139AD7
:1029E000C6001377F77F3309F9408149814BB285DF
:1029F000135ACA0013DBF601E31A07EEB367CA00E5
:102A0000A9C7630E0A22528532C40D2D22462A8799
:102A1000930655FFF547930587FF958F331ABA0044
:102A2000B357F600B3E74701B315B6003309E940E1
:102A30001309D9C08148F1BD33E4A90001ECA149D3
:102A400081441309F07F894B69B593E919008145E9
:102A50008548C1B54E84AA84B1491309F07F8D4BD6
:102A60008DBD914981440149854BA5B593E9390054
:102A7000D2878D4879BD89475685E399FBF02A872F
:102A80009307F07F01448144C1BDC16E1386FEFFF0
:102A900093D6040113DE0501F18CF18D3386950286
:102AA0003383B6029358060133059E021A95AA98FD
:102AB000B382C60363F36800F692C16F1383FFFF0E
:102AC00033F5670093D30701B3F76800C207337388
:102AD00066003E933306950293D80801B387A60299
:102AE000135F0601B3849302BE94FA94B38E760208
:102AF00063F3F400FE9E416A9307FAFF935F0401BB
:102B0000B376F400B3F9F4007D8EC1803384D5022E
:102B1000C209338FD401B299CE98B307DE02935E17
:102B20000401B385BF02AE97BE9E330EFE0363F36E
:102B3000BE00529EC1679385F7FF33F6BE006D8CD1
:102B40004206229693DE0E01B305D502769E3385AA
:102B5000AF0213D40501B386D302AA96A296B38F0F
:102B6000F30363F3A600BE9F41657D15B3F7A6008E
:102B7000C2076D8DAA97B3855800B3B93501FA978E
:102B8000B2953384370133B6C500B30EC401338523
:102B9000CE0033343401B3B7E701C18F33BECE0169
:102BA00013D406013336C5003E943366CE009394A9
:102BB000950032947E94B3E4640026049356750124
:102BC000B3349000DD8193179500CD8C558CDD8C4E
:102BD0009317740063DB070093D71400858893165E
:102BE000F401DD8CD58C058042899307F93F63574A
:102BF000F00893F6740081CE93F6F40011466388D2
:102C0000C60093864400B3B496002694B684931607
:102C1000740063D80600B70700FFFD177D8C93078B
:102C200009409306E07F63CDF60E93D634009314EB
:102C3000D4012604D58C318093F7F77F31BB3285E0
:102C400032C4ED2E93065501F147130705022246C3
:102C5000E3D2D7DC6115B317A6008145C1BBF92EBD
:102C600013075501F145930705022246B246E3D802
:102C7000E5D461153314AA008144B1BB85469D8E0D
:102C8000B1E71309E941B3972401B3D4D400331950
:102C90002401B337F000B3649900DD8C93F774001E
:102CA000B356D40081CF93F7F40011466388C70070
:102CB00093874400B3B49700A696BE84939786008A
:102CC00063D8070485470144814479B11306800322
:102CD000E345D6CC7D46E356D6FA0556B307F64013
:102CE000930500023356F4006387B6001309E943E5
:102CF000B3172401DD8CB3349000D18C93F67400AB
:102D0000014499CA93F7F40011468146E392C7FA49
:102D1000139496003180F6068D80D58C81472DB9AD
:102D20009307F07F0144814405B942897DBD41117B
:102D300006C622C426C205CD9357F541B3C4A700E9
:102D40009D8C2A842685DD2C9306E041898EA94737
:102D50007D8093F6F67F63CDA7022D47098FB3D709
:102D6000E4005505B207B394A400B18329A001443F
:102D7000814681478144B207D206B1837E04D58F54
:102D8000C18FB24022442685BE8592444101828093
:102D90005515B397A400B207B1838144E9BF15CD9F
:102DA000411122C406C62A84512C9306E041898E23
:102DB000A94793F6F67F63DCA7025515B317A40065
:102DC000B207B1830147B2402244B207D206B183B1
:102DD000D58F3A85BE854101828081478146B20701
:102DE000D206B1830147D58F3A85BE8582802D47B3
:102DF000098FB357E400B207130755013317E400F6
:102E0000B183D1B7411106C622C415CD2A843D2411
:102E10009307E0093387A7409307600963C0E7047D
:102E2000A1469377F70F63D5A60061153314A4006C
:102E300026042580260413559400B2402244DE0760
:102E40005D8D410182800144260413559400B240F7
:102E500022448147DE075D8D4101828093079009FE
:102E600063DDE7009307B5019546B317F400898E3B
:102E7000B337F0003354D4005D8C954763D6A70078
:102E80009307B5FF3314F400B70600FCFD169377E3
:102E900074003376D40085C39377F4009145638C36
:102EA000B70011069317560063D707009307F00980
:102EB000758E3387A74013146600258026041355AA
:102EC0009400B24022449377F70FDE075D8D4101F5
:102ED000828093D645019397C50093F6F67FB18320
:102EE000138616008E071357D5011376E67FFD81F2
:102EF0005D8F9318350035CE138806C89307E00F11
:102F000063DD07018147139597009306F00FDE06F6
:102F10002581FE05558D4D8D82806355000B9317DD
:102F200065000E07B337F000D98F93D8D801B3E707
:102F3000170113F777006301071013F7F7009146A5
:102F40006303D7009107370700047D8F75C7130708
:102F500018001306F00F9376F70FE305C7FA9A07E8
:102F6000A58313959700DE062581FE05558D4D8DB1
:102F70008280B367170199EE85CF95479A07A5839D
:102F80001395970093F6F60FDE062581FE05558D05
:102F90004D8D8280A5DBB7074000139597009306FF
:102FA000F00FDE0681452581FE05558D4D8D828011
:102FB0008147139597008146DE062581FE05558DD4
:102FC0004D8D8280A5576348F804F9473706800085
:102FD000B38707417D45598E6351F504795733070F
:102FE0000741130500023357E6006388A700938664
:102FF00026CAB316D600B3E8D800B3371001D98F6C
:1030000013F77700014815FB139757008546E348EF
:1030100007F48146A5B781468DB7938626C83397B6
:10302000D8003337E000B316D600B3D8F800B36742
:10303000D700B3E7F800E9B7C28689B7C167637CF8
:10304000F5029307F00F1307000263EBA700970741
:1030500000009387270EAA9788233305A740828014
:103060002181970700009387E70CAA97882361477F
:103070003305A7408280B7070001636DF5006181C9
:10308000970700009387070BAA97882321473305EA
:10309000A74082804181970700009387A709AA97DC
:1030A000882341473305A7408280000000000000CC
:1030B0007B14AE47E17A843F760D0000840D00005A
:1030C000960D0000960D0000960D0000960D000074
:1030D000960D0000CA0D0000AC0F0000CC0F0000E0
:1030E000CC0F0000CC0F0000CC0F0000CC0F000074
:1030F0009AF9FFFF90F8FFFF90F8FFFF8EF8FFFFAF
:1031000096F8FFFF96F8FFFF5CF8FFFF8EF8FFFFD1
:1031100096F8FFFF5CF8FFFF96F8FFFF8EF8FFFFC1
:1031200086F9FFFF86F9FFFF86F9FFFF5CF8FFFFD6
:10313000000102020303030304040404040404045E
:10314000050505050505050505050505050505052F
:10315000060606060606060606060606060606060F
:1031600006060606060606060606060606060606FF
:1031700007070707070707070707070707070707DF
:1031800007070707070707070707070707070707CF
:1031900007070707070707070707070707070707BF
:1031A00007070707070707070707070707070707AF
:1031B000080808080808080808080808080808088F
:1031C000080808080808080808080808080808087F
:1031D000080808080808080808080808080808086F
:1031E000080808080808080808080808080808085F
:1031F000080808080808080808080808080808084F
:10320000080808080808080808080808080808083E
:10321000080808080808080808080808080808082E
:10322000080808080808080808080808080808081E
:08323000E803000001000000AA
:00000001FF
